:020000022000DC
:1070000000000420593E0500913E0500A521050021
:10701000953E0500B1210500B721050000000000E4
:107020000000000000000000000000004DCB040044
:107030009D3E050000000000E7CB0400F7CB0400F4
:10704000497F050031F00400A33E0500A33E050082
:10705000A33E0500A33E0500A33E0500A33E050098
:10706000A33E0500A33E0500A33E0500A33E050088
:10707000A33E0500DD800500A33E050049F00400A5
:10708000A33E0500A33E0500A33E0500A33E050068
:10709000A33E0500A33E0500A33E0500A33E050058
:1070A000A33E0500A33E0500A33E0500A33E050048
:1070B000A33E0500A33E0500000000000000000004
:1070C000A33E0500A33E0500A33E0500A33E050028
:1070D000A33E0500A33E0500A33E0500A33E050018
:1070E000A33E0500A33E0500A33E050000000000EE
:1070F00000000000A33E050000000000A33E0500C4
:107100000348044B834202D0034B03B11847704736
:1071100080660020806600200000000005480649C7
:10712000091A891001EBD171491002D0034B03B148
:10713000184770478066002080660020000000002D
:1071400010B5064C237843B9FFF7DAFF044B13B1AF
:107150000448AFF300800123237010BD8066002037
:107160000000000084ED080008B5054B1BB105497F
:107170000548AFF30080BDE80840FFF7CFBF00BF70
:10718000000000008466002084ED0800154B002BF1
:1071900008BF134B9D46A3F5803A00218B460F464E
:1071A0001348144A121A35F0D1FF0F4B002B00D0B0
:1071B00098470E4B002B00D0984700200021040078
:1071C0000D000D48002802D00C482BF083FD35F04F
:1071D00093FE2000290027F061FD2BF078FD00BF11
:1071E000000008000000042000000000F9EB04008B
:1071F00080660020483F0120D52C050000000000DB
:10720000037A07EE101A06EE902A13B901230372CF
:107210000160F7EE007A90ED006A80ED017A77EE7A
:10722000E67A67EE867AE7EE267AC0ED007A17EE08
:10723000900A704730B585B06C4684E80F0038205E
:1072400035F0EEFE054694E80F0085E80F0028466D
:1072500005B030BD84B0039300900191029204AB5D
:1072600013E90F0004B0FFF7E5BF036803630022D2
:107270000023C0E90A230023002202760361436150
:1072800080F82420C3610362704700000000000002
:1072900010B50446084634F0EDFC10A3D3E90023F2
:1072A00034F040FD02460B4600200B4934F064FEEA
:1072B00035F030F8D4ED0C7AB7EE007AC7EE276AD5
:1072C00007EE900AC7EEA67A77EE877AC7EE277A9E
:1072D00017EE900A10BD00BF0000F03F182D445477
:1072E000FB21194010B500222DED028B044608EE5B
:1072F000901A0023D0E90A0134F07CFF50B1D4ED9C
:10730000007A94ED0C7AB4EE677AF1EE10FA18BFB9
:10731000C4ED0C7A237E63B394ED058AD4ED0C7A28
:1073200038EEC88A28EE278AE1682046FFF7B0FFCA
:1073300018EE101A024604F11C00FFF761FF07EE79
:10734000900AD4ED026AB0EEE77AD4ED017AE6EE67
:10735000877A204617EE901AFFF79AFF18EE901AD8
:10736000BDEC028B024604F11000BDE81040FFF7AF
:1073700047BF9FED018AD7E70000000070477047C4
:1073800008B50D4B1868FFF770FF0C4B1868FFF736
:107390006CFF0B4B1868FFF768FF0A4B1868FFF784
:1073A00064FF094B1868FFF760FF084B1868BDE8D9
:1073B0000840FFF75ABF00BFC4660020C86600201F
:1073C000CC660020D0660020D4660020D86600205D
:1073D0007FB51C4B1C4D1968CA18CB582A60D31AAC
:1073E0001988042904D99B8813B1D358032B04D0DE
:1073F0001649174825F07CF9FEE70024B4202BF04D
:1074000073FECDE90244134B01934FF400530093F4
:10741000114A124B2968124D06461EF0FFFA3046FB
:107420002E601EF09FFC214628681EF049FB0D4B84
:107430002146186028681EF067FB0B4B186004B0EB
:1074400070BD00BF5FFE0500E886002048FE050015
:107450004CA1002020600020EC860020E066002087
:10746000E4860020E08600207C9900202DE9F04F82
:107470002DED028B8D4C8E4F85B026462368772BE1
:1074800032D18C483D6800F095FD01462846FFF753
:1074900029FF894B08EE100A86481D6800F0A9FDF7
:1074A00001462846FFF71EFF844B08EE900A8148EC
:1074B0001D6800F0BDFD01462846FFF713FFB0EE42
:1074C000C88AF0EEE88A07EE900A38EE288AF0EED5
:1074D000E77A38EE278ADFED7A7AB4EEE78AF1EEC2
:1074E00010FACBDB002323603368762B00F3D880BF
:1074F0006F4B70481C6800F05DFD01462046FFF7A9
:10750000F1FE6D4A03906B48146800F072FD01466D
:107510002046FFF7E7FE694A83466648146800F094
:1075200087FD01462046FFF7DDFE664A8246614838
:10753000146800F09CFD01462046FFF7D3FE624A26
:1075400081465C48146800F0B1FD01462046FFF713
:10755000C9FE5E4A80465748146800F0C6FD0146E1
:107560002046FFF7BFFE5A4A039B1268356812692E
:1075700007461824184604FB052434F07BFB002240
:107580004FF0804334F018FA0022524B34F0CAFB1B
:1075900034F0C0FE2060584634F06CFB00224FF0FF
:1075A000804334F009FA00224A4B34F0BBFB34F03C
:1075B000B1FE6060504634F05DFB00224FF0804326
:1075C00034F0FAF90022434B34F0ACFB34F0A2FE65
:1075D000A060484634F04EFB00223F4B34F0ECF9FB
:1075E00000223E4B34F0C8FC34F094FEE06040468C
:1075F00034F040FB0022384B34F0DEF90022374BE8
:1076000034F0BAFC34F086FE2061384634F032FBA8
:107610000022314B34F0D0F90022304B34F0ACFC76
:1076200034F078FE0135772D606135607FF45CAF12
:107630002B492C4825F05CF82B4B18681EF07EFC7B
:107640000A2204460146274825F09CF824B1274920
:10765000244825F04DF8FEE7254F224DDFF89490A1
:10766000DFF8948057F8041B284625F032F8494685
:10767000284625F02EF8D8F800301B69234404343E
:10768000186834F0F7FA0623009302460B462846A2
:1076900025F04AF9182CE5D1124825F021F823E706
:1076A00005B0BDEC028BBDE8F08F00BF1C60002070
:1076B000C46600209C660020C8660020CC660020BE
:1076C0003333F33FD0660020D4660020D866002014
:1076D000E08600200000D03F00408F4000409F40E7
:1076E0005F4208004CA10020E48600206C420800A4
:1076F00004600020C8DC08007C99002070B5274D8C
:10770000274C2848284E6A22002100F065FB2A46B3
:10771000264927482BF0D9FA204602F0D9FB2A4601
:107720002046244D244C25492BF0CFFA2B462246E7
:107730004FF07C513046FFF78DFD214B22461860FB
:107740004FF07C512B463046FFF784FD1D4B2246FF
:1077500018604FF07C512B463046FFF77BFD1A4EE8
:107760001A4B224618604FF07C512B463046FFF7EB
:1077700071FD174B224618604FF07C512B46304666
:10778000FFF768FD134B224618604FF07C512B46E3
:107790003046FFF75FFD104B186070BD00600020A1
:1077A000EC8600209C6600200000C8427D73020029
:1077B000206000200AD7A33CCDCC4C3D7F73020053
:1077C000C4660020C86600200000F042CC6600209D
:1077D000D0660020D4660020D866002008B54FF49B
:1077E00016510D4823F0B0FB0B4823F00DFC002888
:1077F000FAD00A4800F0EAFC60B10949064824F0D2
:1078000077FF054824F06CFFFFF7BAFDBDE808409C
:10781000FFF7DEBD0349F1E74CA100209C66002084
:107820007B4208008842080010B586B0C3688DF816
:107830000F101868012203680092DC680DF10F0137
:107840000DF11703A0479DF8170006B010BDF8B55D
:10785000427A036804460E46CFB29B680D0A62B9AD
:1078600039469847236860F307069B6829462046F7
:10787000984760F30F26B0B2F8BD294698472368B1
:1078800060F30F269B6839462046984760F3070649
:10789000F1E713B5C368186803680092DC680B460B
:1078A000A04702B010BD70477047C368186810B198
:1078B00003685B6818477047704773B543686D4647
:1078C0009942044685E806000E4604D1BDF804201E
:1078D00003899A420FD0E3689DF8042018680821B4
:1078E00027F07DFEE3683146186827F095FE009882
:1078F000AB886060238102B070BD10B514210446CE
:107900002BF008FC204610BD37B5C5680446B5B954
:1079100004202BF0E9FBE060056054202BF0E4FB31
:107920004FF0FF33009394F9102094F9123094F93A
:107930001110054627F00EFEE3681D6002E02B687B
:10794000002BEAD003B030BD10B5044623F04BFA4B
:1079500084423BBF2401024B4FF0FF30185710BD4B
:107960006860002038B50920FFF7EEFF05460A20C1
:10797000FFF7EAFF04460820FFF7E6FF094B0A4A33
:107980001A604FF48071002219815A60DA6098748D
:107990001D745C741846054A0549BDE838402BF053
:1079A00094B900BF80990020CC42080000600020FC
:1079B000B97802000020704770470368C9B21B689D
:1079C000184749000023C161C0F82C327047036892
:1079D00001211B6B184710B403689C6B0123A4465C
:1079E0005DF8044B6047D0F82C32B3F5807F1FBFA1
:1079F0005A1CC0F82C22C01880F82C1114BF01208A
:107A000000207047D0F8280170477047C0F8301246
:107A10007047C0F8341270470346D0F82801A8B167
:107A2000D3F8282182B1D3F824211A4492F82000F7
:107A3000D3F824210132D2B2C3F82421D3F828216B
:107A4000013AC3F8282170474FF0FF307047D0F853
:107A500028312BB1D0F82431184490F82000704719
:107A60004FF0FF307047000010B5044B0360044630
:107A700000F50E702BF098FE204610BD2043080044
:107A800038B50446A8202BF02FFB94F9192094F95F
:107A90001810054627F07CFC656138BD70B50546B9
:107AA00088B048200E462BF01FFB95F9192095F958
:107AB0001810044627F0A6FC20462C61710027F020
:107AC000BDFC0C4B07930C4B0293002303930195D1
:107AD00001AB93E8070004AC84E80700214605F5F4
:107AE0000E702BF0CFFD079B13B19B682046984783
:107AF00008B070BD00430800C37C02000B6803603F
:107B00004B6843608B688360704738B5D0F82C327F
:107B100014461A44B2F5807F88BFC3F580740546C9
:107B200000F596702246184435F0E8FAD5F82C3264
:107B30002344C5F82C32204638BD38B50446406988
:107B40000D4608B127F048FB206920B12946BDE861
:107B5000384027F071BC38BD38B50446406910B1D3
:107B60000368DB68984723696BB104F50E752846F6
:107B70002BF0F8FD28462BF03FFE20694821BDE898
:107B800038402BF0C7BA38BD1FB50246D0F82C32AA
:107B9000D469406981F0010100913BB9012303AA36
:107BA000214627F04AFBC0B204B010BD02F5967220
:107BB000214627F023FB002814BF02200020F3E712
:107BC00010B4D0E9013401686210E40701EB02004F
:107BD00048BF8A585DF8044B48BFD3581847000087
:107BE00073B54FF47A730025C0E90153194B036054
:107BF0000446C0E904550176427629464FF4807266
:107C0000203035F0A3FA144BC4F82051C4F83832B0
:107C10002946C4F82451C4E98B55C4F82851C4F846
:107C20003452C4F8485204F51E702BF083FC04F55E
:107C300023702BF01DFC04F50E76084B00933046A4
:107C40002B464FF4006218212BF010FD204602B0A5
:107C500070BD00BF20430800ECE108000C430800A1
:107C6000D0F80831B3F5807F0DD0D0F80031C15481
:107C7000D0F800310133DBB2C0F80031D0F8083160
:107C80000133C0F808317047F0B5C3B083F0010389
:107C90000093064615461346490002AA406927F09C
:107CA000CCFA50B902AC67192036BC4206D014F8A1
:107CB000011B3046FFF7D4FFF7E70025284643B005
:107CC000F0BD2DE9F0410446BCB000F120070025CD
:107CD000206927F0BAFB0328FAD8DFE800F03B025E
:107CE0001414D4F8343203B19847D4F82C2232B1AA
:107CF00004F59671206927F0ACFBC4F82C5220697A
:107D000027F0AFFBE4E7C4F82051F022C4F8245177
:107D10006946C4F82851206927F099FB002680465F
:107D200046450BDAD4F82831B3F5807F06D01DF82C
:107D300006103846FFF794FF0136F1E7D4F82831F2
:107D4000002BC5DDD4F83032002BC1D0D4F8280187
:107D50009847BDE724F040FEBAE70000F8B50420DC
:107D6000FFF7F2FD05460520FFF7EEFD104C114E22
:107D70002946114D02462046FFF732FF324629467A
:107D800020462AF0A2FF1020FFF7DEFD07460F2055
:107D9000FFF7DAFD094C024639462046FFF720FF7F
:107DA000324629462046BDE8F8402AF08EBF00BF83
:107DB0009499002000600020697A0200889C0020CD
:107DC0006B2343700A238370017009B942707047B6
:107DD000012908BF8270704710B50446FFF7F0FF15
:107DE000012323714FF4FA63E3804FF4C873638176
:107DF00040F20113A381E381E382238340F6B83389
:107E00004FF4D07263830A23228110216282A383FC
:107E1000642200232182A282A3776384A384204664
:107E200010BD00000000000038B5008A2DED028B67
:107E3000400808EE101A33F00BFFF8EEC87A04463B
:107E400017EE900A0D4633F015FF0CA3D3E900237B
:107E500033F068FF02460B462046294633F062FFA6
:107E60000022054B34F088F834F054FABDEC028B54
:107E700038BD00BFAFF3008000408F4008AC1C5AF3
:107E8000643BAF3F07EE901AD0B5F8EEE77AC488AE
:107E900017EE900AF52C17BF7D230224B4FBF3F4F0
:107EA000E4B233F0E7FE00220A4B33F03BFF064614
:107EB00020460F4633F0CCFE02460B46304639468C
:107EC00033F030FF0022044B34F056F834F022FA3D
:107ED000D0BD00BF0080114000408F4038B503780E
:107EE0000D46144693B941780948FFF76AFD2946C3
:107EF0000748FFF778FD21460548FFF774FD044861
:107F0000FFF765FD003018BF012038BD0020FCE7F9
:107F1000889C0020F8B51D46037806460C46174697
:107F2000F3B941781048FFF74CFD39460E48FFF78A
:107F30005AFD0D48FFF74BFDA0B92A4671780A4853
:107F4000094EFFF748FD25443046FFF75BFD38B189
:107F5000AC4205D03046FFF75FFD04F8010BF3E7B4
:107F60000020F8BD0120FCE7889C002013B5022307
:107F70000C4601A9FFF7CEFF9DF805209DF80430BF
:107F800043EA0223238002B010BD13B528220DF16D
:107F900006010446FFF7EAFF40B105280BBF638CDA
:107FA000A38C013301330CBF6384A384BDF90600A5
:107FB00002B010BD10B50446FFF7E7FF01462046AA
:107FC000BDE81040FFF730BF13B52A220DF10601BE
:107FD0000446FFF7CBFF40B105280BBF638CA38C91
:107FE000013301330CBF6384A384BDF9060002B0E2
:107FF00010BD10B50446FFF7E7FF01462046BDE877
:108000001040FFF711BF13B52C220DF106010446F5
:10801000FFF7ACFF40B105280BBF638CA38C013385
:1080200001330CBF6384A384BDF9060002B010BD08
:1080300010B50446FFF7E7FF01462046BDE81040B3
:10804000FFF7F2BE13B522220DF106010446FFF739
:108050008DFF40B105280BBF638CA38C0133013326
:108060000CBF6384A384BDF9060002B010BD10B537
:108070000446FFF7E7FF01462046BDE81040FFF742
:1080800001BF13B524220DF106010446FFF76EFF70
:1080900040B105280BBF638CA38C013301330CBFA7
:1080A0006384A384BDF9060002B010BD10B5044678
:1080B000FFF7E7FF01462046BDE81040FFF7E2BEAC
:1080C00013B526220DF106010446FFF74FFF40B11C
:1080D00005280BBF638CA38C013301330CBF638471
:1080E000A384BDF9060002B010BD10B50446FFF729
:1080F000E7FF01462046BDE81040FFF7C3BE000081
:10810000F8B5037805460F4616460024EBB94178CA
:108110001048FFF756FC31460E48FFF764FC0D4847
:10812000FFF755FC69780B4D061B4FF0010209481B
:1081300018BF0126FFF74FFC2846FFF763FC28B164
:108140002846FFF769FCC4B2F6E726463C70304685
:10815000F8BD00BF889C002013B5044601210E2005
:1081600024F084FC174B40F20332C3F8202701218E
:108170000E2024F0BBFC0A2024F01EFC237813B947
:108180001148FFF77DFC00238DF8063042F2107392
:108190009DF80620013B0132D2B29BB28DF8062039
:1081A000002BF5D10F220DF107012046FFF7A8FFA4
:1081B0009DF807006938012894BF0020012002B013
:1081C00010BD00BF00030050889C002073B5054619
:1081D00000268DF80660FFF7BFFFAA7B8DF80660CA
:1081E000012A044657D1AB8A642B1ED0C82B1ED05F
:1081F000322B02D103238DF806302A8A9DF80630EF
:10820000042A17D0082A1AD0022A1BD16A8A9DF89C
:108210000630B2F5D07F71D01ED81A2A68D014D893
:108220000D2A34D043F0400333E00223E3E78DF816
:108230000620E2E743F008038DF80630E6E743F056
:108240000C03F9E743F00403F6E7342A53D0D02AAD
:10825000E8D143F050031CE040F602518A4253D06B
:108260000AD840F241318A424BD040F27C618A42C6
:10827000D8D163F07F030CE041F604218A4246D056
:1082800043F212418A42CDD163F04F0301E043F043
:1082900010038DF806309DF8062010212846FFF7C0
:1082A0001DFE13220DF106012846FFF729FF9DF858
:1082B0000630EA7B03F07F03012A8DF8063004BF05
:1082C00063F07F038DF806309DF8062013212846C1
:1082D000FFF704FE00238DF806302B79012B34D1F3
:1082E000EB88F52B21D015D87D2B1BD00C231AE061
:1082F00043F02003CDE743F03003CAE743F06003C7
:10830000C7E743F07003C4E763F06F03C1E763F0AE
:108310005F03BEE7B3F5FA7F2FD0B3F57A7FE5D1DF
:10832000082300E002238DF806302A899DF80630E4
:10833000D02A3BD023D81A2A2FD0342A30D00D2A65
:1083400031D143F010038DF806309DF8062011213D
:108350002846FFF7C3FD0F220DF107012846FFF75E
:10836000CFFE2B7E012B05D19DF80730692B26D13E
:1083700010232B84204602B070BD0423D3E740F2C3
:1083800041318A4215D040F27C618A4214D0B2F564
:10839000D07F08D143F06003D5E743F02003D2E754
:1083A00043F03003CFE743F04003CCE743F0500302
:1083B000C9E743F07003C6E763F07F03C3E76A2BA6
:1083C000D8D14FF48073D4E701308000704730B5C6
:1083D00018B9B1FA81F0400930BD03688B420DD164
:1083E000043000238B4201DB0120F5E750F8045BE9
:1083F00052F82340A54201D10133F3E70020EBE717
:10840000884205D030B131B10A1D0968FFF7DFBFDE
:1084100001207047704708467047000011289ABF36
:10842000024B53F820000248704700BF7043080019
:10843000B84308000EB403B503AA036852F8041B3E
:1084400001929B68984702B05DF804EB03B0704757
:108450000CB407B504AA036852F8041B01929B6888
:10846000984703B05DF804EB02B070470138C0B222
:1084700004289ABF014B185C002070473144080063
:1084800020B101280CBF0220002070470120704756
:1084900003685B681847000038B515461A4628B9C6
:1084A0000B492846FFF7C6FF012038BD0468082C99
:1084B00009D8043900EB8404A04206D050F8043FE8
:1084C00041F8043FF8E70349EBE70020EDE700BF80
:1084D00046440800744408000368C01A03888B42AD
:1084E0008CBF405A0020704710B50C210446FFF79E
:1084F000F3FF10B123182058184410BD08B50346E7
:108500001046102B2ED8DFE803F00D0915191D2198
:108510002311251B0F271F292B1713000A230B706C
:10852000002008BD0123FAE70B23F8E70723F6E74D
:108530001123F4E70223F2E71023F0E70323EEE729
:108540000923ECE70423EAE70D23E8E70523E6E740
:108550000623E4E70823E2E70C23E0E70E23DEE747
:108560000F23DCE700220A701A460249FFF762FF78
:108570000120D6E7B544080000207047002070476E
:10858000002070470020704700207047002070478F
:10859000002070470020704700207047002070477F
:1085A000002070470020704700207047002070476F
:1085B000002070470020704700207047002070475F
:1085C000002070470020704700207047002070474F
:1085D000002070470020704700207047002070473F
:1085E000002070470020704700207047002070472F
:1085F000002070470020704700207047002070471F
:10860000002070470020704700207047002070470E
:1086100000207047002070470020704700207047FE
:1086200000207047002070470020704700207047EE
:108630000020704738B505461446FFF74DFF00B1DE
:108640002C5C204638BD08B500220A21FFF7F2FF56
:1086500008BD00002DE9F0479946136816461B68CF
:10866000054604228A4630462421984724220021C8
:10867000044634F06BFD2846FFF7E5FF112818D1BA
:108680002846FFF731FF054698B10421FFF724FF84
:1086900078B12F5805EB000818EB070009D00A4BFA
:1086A00052462146FFF7F8FE054640B958F8073014
:1086B0002362C9F8004000252846BDE8F08721461E
:1086C0003046FFF7E5FEF7E7364408002DE9F047AE
:1086D0009946136816461B68054604228A463046AA
:1086E0002421984724220021044634F02FFD2846F7
:1086F000FFF7A9FF1E2818D12846FFF7F5FE05460B
:1087000098B10421FFF7E8FE78B12F5805EB000877
:1087100018EB070009D00A4B52462146FFF7BCFE72
:10872000054640B958F807302362C9F800400025D3
:108730002846BDE8F08721463046FFF7A9FEF7E757
:108740003E44080070B51D46136806461B68104677
:108750000821042298470023C0E90033044630462C
:10876000FFF771FF6F2819D13046FFF7BDFE0646AF
:10877000A0B10421FFF7B0FE28B1325833189B187E
:108780001CBF0433236006213046FFF7A5FE28B145
:10879000325833189B181CBF043363602C600020D0
:1087A00070BDF8B51F46136806461B6810460221C7
:1087B0000122984700250570457004463046FFF7B2
:1087C00042FF662815D13046FFF78EFE064680B17F
:1087D0002A460421FFF72EFF401B18BF01202070FE
:1087E0002A4606213046FFF725FF401B18BF01200F
:1087F00060703C600020F8BDF8B51F46136806465F
:10880000104601221B681146984700250570044652
:108810003046FFF718FF1B280BD13046FFF764FEE8
:1088200038B12A460421FFF705FF401B18BF01207D
:1088300020703C600020F8BDF8B51F46136806465E
:108840001B681046022101229847002505704570DB
:1088500004463046FFF7F7FE0F2815D13046FFF7E4
:1088600043FE064680B12A460821FFF7E3FE401B7F
:1088700018BF012020702A460A213046FFF7DAFE91
:10888000401B18BF012060703C600020F8BDF8B5A7
:108890001F46136806461B681046022101229847AE
:1088A00000250570457004463046FFF7CCFE4A2887
:1088B00015D13046FFF718FE064680B12A4604213E
:1088C000FFF7B8FE401B18BF012020702A46062182
:1088D0003046FFF7AFFE401B18BF012060703C60C0
:1088E0000020F8BD38B505461446FFF7F5FD00B188
:1088F0002C58204638BDF8B51F461368064610466A
:1089000004221B681146984700250560044630463E
:10891000FFF799FE672808D13046FFF7E5FD20B143
:108920002A460421FFF7DEFF20603C600020F8BDEE
:10893000F8B51F4613680646104604221B68114608
:1089400098470025056004463046FFF77CFE5E2808
:1089500008D13046FFF7C8FD20B12A460421FFF7B1
:10896000C1FF20603C600020F8BDF8B51F461368C9
:1089700006461B6810460821042298470025C0E9D6
:10898000005504463046FFF75EFE17280FD13046EB
:10899000FFF7AAFD064650B12A460421FFF7A2FFC1
:1089A0002A46206006213046FFF79CFF60603C604D
:1089B0000020F8BDF8B51F46136806461B68104630
:1089C0000821042298470025C0E900550446304696
:1089D000FFF739FE5C280FD13046FFF785FD0646CC
:1089E00050B12A460421FFF77DFF2A462060062168
:1089F0003046FFF777FF60603C600020F8BDF8B5B7
:108A00001F46136806461B68104608210422984733
:108A10000025C0E9005504463046FFF714FE3B2808
:108A20000FD13046FFF760FD064650B12A460421BB
:108A3000FFF758FF2A46206006213046FFF752FF15
:108A400060603C600020F8BDF8B51F46136806461C
:108A5000104604221B68114698470025056004460D
:108A60003046FFF7F0FD132808D13046FFF73CFDF4
:108A700020B12A460421FFF735FF20603C6000202A
:108A8000F8BDF8B51F4613680646104604221B6859
:108A9000114698470025056004463046FFF7D3FD90
:108AA000232808D13046FFF71FFD20B12A460421B4
:108AB000FFF718FF20603C600020F8BDF8B51F46A6
:108AC00013680646104604221B6811469847002585
:108AD000056004463046FFF7B6FD4F2808D1304602
:108AE000FFF702FD20B12A460421FFF7FBFE2060BC
:108AF0003C600020F8BD70B51E46136805461B6833
:108B0000104614210422984714220021044634F010
:108B10001DFB2846FFF797FD202821D12846FFF7A7
:108B2000E3FC0546E0B100220421FFF7DBFE002252
:108B3000206006212846FFF7D5FE0022606008214C
:108B40002846FFF7CFFE0022A0600A212846FFF743
:108B5000C9FE0022E0600C212846FFF7C3FE206119
:108B60003460002070BDF8B51F46136806461B68C8
:108B700010460821042298470025C0E90055044604
:108B80003046FFF760FD40280FD13046FFF7ACFCC0
:108B9000064650B12A460421FFF7A4FE2A4620606B
:108BA00006213046FFF79EFE60603C600020F8BD65
:108BB00038B505461446FFF78FFC00B12C56204609
:108BC00038BDF8B51F46136806461B6810460221DB
:108BD0000122984700250570457004463046FFF78E
:108BE00032FD0B2815D13046FFF77EFC064680B1DA
:108BF0002A460421FFF7DCFFC0B2FFF737FC012251
:108C0000207006213046FFF715FD401B18BF0120DC
:108C100060703C600020F8BD2DE9F8439946136868
:108C20001646012207461B6888463046114698477B
:108C30000025057004463846FFF705FD282805D0B5
:108C4000C9F8004000252846BDE8F8833846FFF7FC
:108C50004BFC0028F4D02A460421FFF7A9FF424626
:108C60002146C0B2FFF74AFC05460028E8D021465D
:108C70003046FFF70DFCE6E72DE9F8439946136807
:108C80001646012207461B6888463046114698471B
:108C90000025057004463846FFF7D5FC392805D075
:108CA000C9F8004000252846BDE8F8833846FFF79C
:108CB0001BFC0028F4D02A460421FFF779FF424626
:108CC0002146C0B2FFF71AFC05460028E8D021462D
:108CD0003046FFF7DDFBE6E72DE9F84399461368D8
:108CE000164680461B6801220F46304602219847EF
:108CF00000240470447005464046FFF7A4FC252874
:108D000005D0C9F8005000242046BDE8F88340464D
:108D1000FFF7EAFB80460028F3D022460421FFF744
:108D200047FF3A462946C0B2FFF7E8FB044660B960
:108D3000024606214046FFF73BFF3A46691CC0B297
:108D4000FFF7DCFB04460028DBD029463046FFF75E
:108D50009FFBD9E7F8B51F46136806461B68104607
:108D60000821042298470025056005710446304615
:108D7000FFF769FC0A2812D13046FFF7B5FB06461B
:108D800068B12A460621FFF713FFC0B2FFF76EFB5A
:108D90002A46207104213046FFF7A4FD20603C6084
:108DA0000020F8BDF8B51F46136805461B6810463D
:108DB00018210422984718220021044634F0C6F9ED
:108DC0002846FFF740FC012806462DD12846FFF72C
:108DD0008BFB054640B300220421FFF7E9FEC0B239
:108DE000FFF74EFB0022207006212846FFF77AFD90
:108DF0000022606008212846FFF774FD00220A2146
:108E0000A0602846FFF7D4FEC0B2FFF72FFB324622
:108E100020730C212846FFF765FD324620610E21A4
:108E20002846FFF75FFD60613C600020F8BD70B52B
:108E30001E46136805461B6810461C2104229847ED
:108E40001C220021044634F081F92846FFF7FBFB81
:108E5000022833D12846FFF747FB054670B30022AE
:108E60000421FFF7A5FEC0B2FFF70AFB0022207025
:108E700006212846FFF736FD0022606008212846BB
:108E8000FFF730FD0022A0600A212846FFF72AFDE7
:108E900000220C21E0602846FFF78AFEC0B2FFF7EF
:108EA000E5FA012220740E212846FFF71BFD01225E
:108EB000606110212846FFF715FDA0613460002095
:108EC00070BD00002DE9F047994613681646074625
:108ED0001B6801228A463046042198470025056018
:108EE00004463846FFF7AFFB0828804627D13846AE
:108EF000FFF7FAFA074610B32A460421FFF758FE97
:108F0000C0B2FFF7B3FA2A46207041463846FFF751
:108F100091FB401B18BF0120A0702A460A21384649
:108F2000FFF788FB401B18BF0120E0702A4606218E
:108F30003846FFF73DFE10B1012804D16070C9F832
:108F40000040002008E005495046FFF773FA30461C
:108F50002146FFF79DFA0120BDE8F087D9440800BB
:108F6000F8B51F4613680646104601221B681146D5
:108F700098470025057004463046FFF764FB0C282F
:108F80000BD13046FFF7B0FA38B12A460421FFF77B
:108F90000FFEC0B2FFF76AFA20703C600020F8BDF7
:108FA000F8B51F4613680646104601221B68114695
:108FB00098470025057004463046FFF744FB4D28CE
:108FC0000DD13046FFF790FA48B12A460421FFF749
:108FD000EFFD38B101280CBF02232B4623703C6003
:108FE0000020F8BD0123F9E7F8B51F4613680646CF
:108FF000104601221B68114698470025057004465B
:109000003046FFF720FB15280BD13046FFF76CFAEE
:1090100038B12A460421FFF7CBFDC0B2FFF726FA8C
:1090200020703C600020F8BD70B51E4613680546F0
:109030001B68104628210422984728220021044654
:1090400034F084F82846FFF7FEFA05282DD128468B
:10905000FFF74AFA054640B300220421FFF7A8FDB6
:10906000C0B2FFF70DFA0022207006212846FFF754
:1090700039FC0022606008212846FFF733FC0022FB
:10908000A0600A212846FFF72DFC0022E0600C2199
:109090002846FFF727FC002220610E212846FFF713
:1090A00087FDC0B2FFF7E2F920753460002070BD83
:1090B0002DE9F843994613681646012207461B68B6
:1090C00088463046114698470025057004463846C4
:1090D000FFF7B9FA372805D0C9F80040002528461F
:1090E000BDE8F8833846FFF7FFF90028F4D02A4698
:1090F0000421FFF75DFD42462146C0B2FFF7FEF9AD
:1091000005460028E8D021463046FFF7C1F9E6E7DA
:10911000F8B51F46136806461B6810460221012257
:10912000984700250570457004463046FFF78BFAD6
:109130001C2815D13046FFF7D7F9064680B12A46DC
:109140000421FFF735FDC0B2FFF790F9012220702E
:1091500006213046FFF76EFA401B18BF01206070F1
:109160003C600020F8BD2DE9F041984613680646A2
:109170001B68104608210422984700250560858059
:1091800004463046FFF75FFA062807461BD13046F3
:10919000FFF7AAF90646B0B12A460421FFF7A2FB61
:1091A0002A46394620603046FFF702FDC0B2FFF77D
:1091B0005DF92A46207108213046FFF73BFA401B33
:1091C00018BF01206071C8F800400020BDE8F081A0
:1091D000F8B51F46136806461B6810460C2104228A
:1091E000984700250570C0E9015504463046FFF751
:1091F0002AFA312818D13046FFF776F9064698B199
:109200002A460421FFF7D4FCC0B2FFF739F92A46F9
:10921000207006213046FFF765FB2A466060082172
:109220003046FFF75FFBA0603C600020F8BD38B51A
:1092300004461546FFF750F908B10444256828464E
:1092400038BDF8B51F4613680646104604221B6851
:10925000114698470025056004463046FFF7F3F9AC
:109260004B2808D13046FFF73FF920B12A460421A8
:10927000FFF7DDFF20603C600020F8BDF8B51F4619
:1092800013680646104604221B68114698470025BD
:10929000056004463046FFF7D6F9092808D1304664
:1092A000FFF722F920B12A460421FFF7C0FF206012
:1092B0003C600020F8BD00002DE9F84398460546C3
:1092C0000023C8F8003091460F461DF0C7F92B68FF
:1092D000EB1A06461A88082A0CD9198951B16C581C
:1092E000972E09D932461C494846FFF7A3F80120BA
:1092F000BDE8F8830124F3E7202E11D03B68224615
:109300001B68314638469847C8F8000008BB134A26
:10931000134952F8262023464846FFF78BF8E6E724
:10932000062A05D9DB88E91813B1EB58C91804D10E
:109330000C494846FFF77EF8D9E73B6822465B6850
:10934000043138469847C8F80000B0FA80F0400968
:10935000CEE70020CCE700BF6847080004450800BE
:10936000BC4708005E480800F8B515461C460022B8
:10937000002306460F4632F03DFF18B100232B6054
:109380002360F8BD22463046394630F085FA002287
:10939000104B32F0C7FC30F0B7FA33F073F84FF0EF
:1093A00000420023824273EB010601DA33F00AFA2D
:1093B000994201BF9042236801332360236808BFAC
:1093C0004FF080401F33BEBF002300202360286081
:1093D000D7E700BF0000E041F8B515461C46002263
:1093E000084B06460F4632F02DFF08B933F0EAF974
:1093F00023462A4630463946FFF7B6FF2368002B3E
:10940000F4DBF8BD0000F03FF7B517461E4600221A
:109410000D4B04460D4632F0F7FE08B933F0D2F991
:10942000002200232046294632F00CFF0028F5D008
:1094300001AB3A4620462946FFF796FF019B002BD9
:10944000ECDC336003B0F0BD0000F03F0000000032
:109450002DE9F14F99460A9B06464FF00040D8404F
:109460000F46904632F0F4FB424604460D464B460A
:109470003046394632F056FC02460B462046294615
:1094800032F050FC0AA3D3E90023DDE90BAB04461C
:109490000D4632F0D7FE10B105A5D5E900455B4673
:1094A00052462046294601B0BDE8F04FFFF794BF71
:1094B0000000C0FFFFFFDF412DE9F8430124814692
:1094C00004FA00F001388846154632F0C1FB064622
:1094D000A5EB09000F46C0F12003A0F1200124FAFA
:1094E00003F304FA01F104FA00F0194332F0ECFB43
:1094F00002460B463046394632F014FCC8F12003D0
:109500000F46A8F1200124FA03F304FA01F10646FC
:10951000194304FA08F032F0D7FB02460B463046F6
:10952000394632F029FD30F03BF932F0ABFEBDE8B0
:10953000F883000010B52DED028B0C4630F0C0FD15
:109540009FED118A07EE900A27EE888A18EE100A1E
:1095500032F090FB30F0D8F932F0DCFE07EE900AE2
:1095600038EE678ABDEEE77ADFED087A84ED007A9F
:10957000B0EEC88AB4EEE78ABDEC028BF1EE10FAC9
:109580004CBF0120002010BD3BAAB83F6F12833AA8
:10959000884230B51FD100F100435C425C4180FB42
:1095A0000123002A73F100010D49A8BF4FF080414B
:1095B0009CB9541843EBE175002C75F1000306DAF1
:1095C0006FF0004164184FF0000141EB0505E00F1A
:1095D00040EA450030BD0024E1E76FF00040F9E7C4
:1095E000010000C0884212D110F5004F14BF0022C4
:1095F00001224843084B58BF4FF480434AB918181A
:1096000044BF00F5FF407F30C01300B27047002216
:10961000EFE747F6FF70F8E701C0FFFF002908B544
:1096200006DA0D4B0D4A4FF4B3710D4833F0D2F802
:109630001F2904DD0B4B094A40F26711F5E70123AE
:109640008B40013B03EA00025B1003EBD07308413F
:109650009A42C8BF013008BD984E08000D4F08005F
:10966000A64E0800FE4E080010B5002A22EAE2735A
:10967000D4BF544200249840FFF78AFF2146FFF7E9
:10968000CDFF10BD2DE9F74F0128019117461D466A
:1096900007DC6FF00043136000232B6003B0BDE8CC
:1096A000F08F0B232B60B0F1005F2C6803DB0134DB
:1096B00080102C60F7E7B0FA80F3013B5B08013BB8
:1096C000E41A5B00984001212C600841FFF7A6FFD7
:1096D000052682464FF0805B59465846FFF758FFF3
:1096E0005946FFF755FFB0F1007F7EDA464B9842AE
:1096F0004FF0FF3C4FF00001A8BF4FF0000C4FEAC5
:10970000E07982014FEA891343EA9063B2F1004F96
:1097100073F1FF306EDB6FF0004890454FF00009A9
:1097200079EB0300B8BF6FF000426FEA010808EA66
:10973000020221F0004882EA08086FEA0C0208EAF7
:1097400002080CF0004C59464FF0C05088EA0C0853
:10975000FFF71EFF414681465046FFF719FFA9EB70
:109760000000B0F1805F48DA284B98424FF0FF319B
:109770004FF0000CA8BF00214FEAE079C2004FEA89
:10978000C90343EA5073B2F1004F73F1FF3038DB85
:109790006FF0004890454FF0000979EB0300B8BF27
:1097A0006FF000426FEA0C0B0BEA02022CF0004B48
:1097B00082EA0B0BCA430BEA020B01F00041013EA7
:1097C0008BEA010B88D112495846FFF7E1FE002CC5
:1097D000BFBF644200FA04F43C602E602B68019A1B
:1097E000A8BF38605A43134657E74FF0FF314FF098
:1097F000000C84E74FF0004297E74FF0FF3C002158
:10980000BAE74FF00042CDE7010000FE010000F092
:109810009A79825AC0EE807A73B5044615460E4690
:1098200017EE900A32F026FA30F06EF832F072FD40
:109830009FED117A07EE900AF4EEC77AF1EE10FA76
:109840000FDB9FED0E7AF4EEC77AF1EE10FA08D82E
:10985000FDEEE77A002017EE901A3144296002B03D
:1098600070BD074B009320466569064A064940F2E1
:109870005913A8470120F2E7000000CF0000004F75
:10988000D14F0800674F0800BA4F0800D1ED027AA7
:1098900092ED027A67EE877A73B5F5EEC07AF1EE53
:1098A00010FA1E460ADA0F4B009344690E4A0F491C
:1098B00040F24B13A047012002B070BD17EE900A92
:1098C00032F0D8F90446B0680D4632F0D3F90B46B1
:1098D00002462946204632F04FFB069BC3E90001B1
:1098E0000020E9E7F74F0800674F0800BA4F08006B
:1098F0002DE9F74F0446886890469A460D4632F0A7
:10990000B9F90646D8F808000F4632F0B3F9024616
:109910000B463046394632F005FADDE90C9B064627
:109920000F46BAF1000F1CD0DAF8080032F0A2F9A5
:1099300002460B463046394632F03CF80646D9F826
:10994000080021F0004732F095F902460B463046F8
:10995000394632F011FB13A3D3E9002332F05EFC49
:1099600050B14B46424629462046CDF830B003B0B0
:10997000BDE8F04FFFF78ABF074B009320466569AB
:10998000064A07494FF49F73A847012003B0BDE87A
:10999000F08F00BFAFF3008010500800674F080041
:1099A000BA4F08007B14AE47E17A943F2DE9F043AB
:1099B0002DED028B9946137F85B0032B0646DDF80B
:1099C000388011D0092B2BD0072B2DD03B4B009387
:1099D00044693B4A3B4940F29113A047012005B03E
:1099E000BDEC028BBDE8F083FF240025012992ED38
:1099F000028AD7681CD103AADFED330A3946B0EEDC
:109A0000480A3046FFF706FF0028E8D1039BAB4227
:109A1000ACBFC9F80030C9F80050C8F80040DEE714
:109A20007F246FF07F05E1E747F6FF74274DDDE700
:109A3000032924D103AADFED240A3946B0EE480AEF
:109A40003046FFF7E7FE0028C9D1039BAB42ACBF0D
:109A5000C9F80030C9F8005003AAF1EE080A3946E7
:109A6000B0EE480A3046FFF7D5FE0028B7D1039B79
:109A7000A342D4BFC8F80030C8F80040AFE70229BD
:109A800015D103AAFFEE000A3946B0EE480A304667
:109A9000FFF7C0FE0028A2D1039BAB42ACBFC9F8C0
:109AA0000030C9F8005003AAF7EE000AD7E7C9F85A
:109AB00000500020C8F8004091E700BF3250080075
:109AC000674F0800BA4F0800000000000080FFFF49
:109AD0002DE9F04F91F800908FB0B9F1010F0446D5
:109AE0000D4616460793DDF880800FD001276C4B9A
:109AF0000193CDE902976B4B00934469DB236A4ADB
:109B00006A49A04701200FB0BDE8F08F1778012FF8
:109B100008D0634B0193CDE90279654B009344690A
:109B2000DD23ECE752683AB9624B00934469E723BE
:109B30005D4A6149A047E5E7D2F80090B9F1000F0E
:109B400004D15E4B00934469E823F1E7D9F800A003
:109B5000BAF1010F35DD0B7F092B06D0072B04D09E
:109B6000574B00934469ED23E2E7337F092B0DD077
:109B70000922CDE90232534B0193534B009365699F
:109B8000EE23494A49492046A847BBE7D04508D0BB
:109B90004E4B0193CDE902A84D4B00936569EF232D
:109BA000EFE77369926803EB82035B68984508D01E
:109BB000CDE90283474B0193444B00936569F2233F
:109BC000DFE7D5ED027A189BCDED057AD3ED027A69
:109BD00009F1040BCDED067A0027B8452EDDBAF168
:109BE000010FCCBFDBF80000D9F8040032F042F8D6
:109BF000CDE90801059832F03DF802460B46DDE953
:109C0000080132F08FF8CDE90801069832F032F8F9
:109C100002460B46DDE9080132F0AEF90CAB0BAAA7
:109C2000FFF7A2FB1E9A0B9B42F827301F9A0C9B52
:109C300042F827300BF1040B0137CEE72B7F032BC3
:109C40001AD100220023CDE90C230CAB0193189B01
:109C500000933246079B29462046FFF749FE00281D
:109C60007FF451AF0BAB1A9ADDE90C01FFF77CFBD7
:109C70000B9B1B9A5B4213602B7F092B03D003F0D5
:109C8000FB03032B09D1DDE918211D9B0093097803
:109C90001C9B2046FFF78AFE35E7002033E700BF14
:109CA000525008006C500800674F080038500800F8
:109CB000855008009F500800BA4F0800B3500800B4
:109CC000CE500800616708000851080015510800CF
:109CD000225108004351080008B549694069FEF760
:109CE0008FFB003018BF012008BD0022C0E9002210
:109CF000826070470022C0E9002282607047012024
:109D000070470368DB69184703681B6A18472029F6
:109D100070B510D041F2040300F11805C4580023B7
:109D20009C4208D05A01AE588E4202D104321044EF
:109D300070BD0133F4E70020FAE741F2882300F513
:109D4000805230B50832C45800239C420AD012F821
:109D5000015B8D4204D103F2224350F8230030BD51
:109D60000133F2E70020FAE741F204032DE9F04164
:109D7000C7580446884605460026B7420FD0AB694F
:109D8000202B09D14146E86934F0A3F920B904EB4E
:109D900046100430BDE8F08101362035EDE70020A3
:109DA000F8E7000020292DE9F047054688461446CB
:109DB00099460AD141F28C23C05810B90120BDE860
:109DC000F0872249FEF736FBF8E70368DB6998471E
:109DD000074648B141F28C23E8580028EED04246AD
:109DE0001B49FEF727FBE9E741F2040E55F80EC0C8
:109DF000BCF17F0F0AD941F28C23E8580028DDD04E
:109E0000802342461349FEF715FBD7E70FCC05EB3D
:109E10004C1A0AF104060FC694E80F0086E80F00FA
:109E200041F288220CF10103CAF8188045F80E307F
:109E3000AB5841F20801E81800F8018003F2224112
:109E4000013345F821903846AB50B8E7DD510800A2
:109E500022520800715208002DE9F04141F2040637
:109E6000054683597F2B884614460CD941F28C2332
:109E7000C05810B90120BDE8F0810A46802312497C
:109E8000FEF7D8FAF6E703681B6A9847074648B119
:109E900041F28C23E8580028ECD042460B49FEF7EB
:109EA000C9FAE7E7AB595A1CAA5105EB43150FCC89
:109EB0002E1D0FC694E80F0086E80F002023C5E989
:109EC00006383846D7E700BFB4520800F6520800FB
:109ED00041F2040330B50025C55041F2882389B012
:109EE000C55041F28C230446C550E34B03606846DD
:109EF0000BF040FBE14B6A4665212046FFF752FF1D
:109F0000684602F0E9FC2946DD4B6A462046FFF729
:109F100049FF684601F012F9DA4B6A466A21204689
:109F2000FFF740FF684601F0E3FAD74B6A46382155
:109F30002046FFF737FF684601F0E4FAD34B6A4644
:109F40004F212046FFF72EFF684601F09BFBD04BC8
:109F50006A4690212046FFF725FF684604F098FEE8
:109F6000CC4B6A4601212046FFF71CFF684601F0F2
:109F700063FCC94B6A4625212046FFF713FF68465C
:109F800001F04AFEC54B6A4681212046FFF70AFFD1
:109F9000684602F045F8C24B6A4635212046FFF775
:109FA00001FF684602F060F9BE4B6A466821204610
:109FB000FFF7F8FE02F0CCF9BB4902462046FFF756
:109FC0004BFF684608F03CFAB84B6A46022120462F
:109FD000FFF7E8FE684603F0FDF8B54B6A4603213B
:109FE0002046FFF7DFFE68460BF0E0FAB14B6A4609
:109FF0006C212046FFF7D6FE684609F039F9AE4BD2
:10A000006A4680212046FFF7CDFE684609F028FA0F
:10A01000AA4B6A4605212046FFF7C4FE684604F0B5
:10A0200027F8A74B6A4604212046FFF7BBFE684687
:10A0300009F004FDA34B6A4606212046FFF7B2FE55
:10A0400009F0ACFFA04902462046FFF705FF68462D
:10A050000BF03AFC9D4B6A466F212046FFF7A2FEAB
:10A06000684606F07DF89A4B6A4647212046FFF77E
:10A0700099FE0BF037FC054630B10BF035FC2A4653
:10A0800001462046FFF7E8FE68460BF055FD6A469C
:10A09000904B2F212046FFF785FE68460BF094FE7B
:10A0A0006A468D4B46212046FFF77CFE68460CF041
:10A0B00009F86A46894B5E212046FFF773FE684621
:10A0C0000CF060F86A46864B08212046FFF76AFECE
:10A0D00068460CF02DF96A46824B5A212046FFF75C
:10A0E00061FE68460CF036FB6A467F4B5F212046D6
:10A0F000FFF758FE684604F025FA6A467B4B0921B3
:10A100002046FFF74FFE68460CF08AFE6A46784B01
:10A1100024212046FFF746FE68460DF059F86A46AE
:10A12000744B6B212046FFF73DFE684606F034F87D
:10A130006A46714B3D212046FFF734FE684606F023
:10A1400039F86A466D4B3E212046FFF72BFE6846E4
:10A150000DF054F86A466A4B75212046FFF722FE3F
:10A1600068460DF0BBFC6A46664B76212046FFF739
:10A1700019FE68460EF07EF86A46634B0B212046B6
:10A18000FFF710FE68460DF099FF6A46414B0C211F
:10A190002046FFF707FE68460EF06AF96A465B4BF9
:10A1A00062212046FFF7FEFD684606F011F86A4678
:10A1B000574B3A212046FFF7F5FD684606F016F8A2
:10A1C0006A46544B3F212046FFF7ECFD68460BF0F2
:10A1D000FBF96A46504B49212046FFF7E3FD6846EC
:10A1E0000EF000FB6A464D4B56212046FFF7DAFD84
:10A1F00068460BF021FA6A46494B57212046FFF783
:10A20000D1FD68460EF0E4FA6A46464B54212046DA
:10A21000FFF7C8FD68460EF0F1FB6A46424B0E217F
:10A220002046FFF7BFFD684604F040FD6A46194B23
:10A2300011212046FFF7B6FD68460EF089FF6A46F9
:10A240003A4B37212046FFF7ADFD684612F06EFA13
:10A250006A46374B28212046FFF7A4FD68460EF0DA
:10A2600081FF6A46334B39212046FFF79BFD684644
:10A270000FF01AFD6A465FE08851080079850200F8
:10A28000C38B02007D850200198C0200798C0200CC
:10A29000818502002990020085850200F78802006E
:10A2A000D98C020089850200B0510800558D02004A
:10A2B000A58D02008D850200A3870200318902006E
:10A2C0002F8E020091850200C05108009585020082
:10A2D000998502009D850200A1850200A5850200E6
:10A2E000A9850200AD850200B1850200C58E02007D
:10A2F0006B890200B5850200B9850200BD850200A8
:10A30000C1850200B5890200618F020043920200FC
:10A31000C5850200C9850200CD850200D1850200F5
:10A32000D5850200D9850200DD850200E1850200A5
:10A33000F9870200E5850200AA4B64212046FFF759
:10A3400031FD684604F01EF96A46A74B12212046EB
:10A35000FFF728FD684610F063F86A46A34B3B21DF
:10A360002046FFF71FFD684605F008FF6A46A04B30
:10A3700048212046FFF716FD684610F0B3F96A46FB
:10A380009C4B53212046FFF70DFD684610F08CFBD7
:10A390006A46994B22212046FFF704FD684610F0DB
:10A3A00091FB6A46954B3C212046FFF7FBFC684633
:10A3B00011F0CCF96A46924B36212046FFF7F2FCA9
:10A3C000684611F083FC6A468E4B72212046FFF7E7
:10A3D000E9FC684611F084FF6A468B4B8F212046CA
:10A3E000FFF7E0FC684612F0AFF96A46874B52214E
:10A3F0002046FFF7D7FC684600F074FA6A46844BA3
:10A4000013212046FFF7CEFC684600F079FA6A4631
:10A41000804B15212046FFF7C5FC684613F05AFA19
:10A420006A467D4B16212046FFF7BCFC684613F0B8
:10A4300077FB6A46794B17212046FFF7B3FC684645
:10A4400013F088FF6A46764B61212046FFF7AAFC8D
:10A45000684614F083FA6A46724B74212046FFF76F
:10A46000A1FC68460BF0CCF86A466F4B4C212046A5
:10A47000FFF798FC684614F0E1FA6A466B4B4D21F1
:10A480002046FFF78FFC68460BF082F86A46684B5F
:10A4900042212046FFF786FC684614F049FB6A46D5
:10A4A000644B41212046FFF77DFC684604F096FC92
:10A4B0006A46614B19212046FFF774FC684615F087
:10A4C00081FA6A465D4B26212046FFF76BFC684601
:10A4D00015F00EFD6A465A4B1A212046FFF762FC22
:10A4E000684615F071FE6A46564B31212046FFF74B
:10A4F00059FC684616F0FEF86A46534B6621204622
:10A50000FFF750FC68460BF06DF86A464F4B4B2145
:10A510002046FFF747FC68460BF080F86A464C4B34
:10A520005C212046FFF73EFC684616F05FFC6A4659
:10A53000484B2B212046FFF735FC684616F060FE9D
:10A540006A46454B2D212046FFF72CFC684617F044
:10A5500033FB6A46414B29212046FFF723FC68461E
:10A5600005F020FD6A463E4B1B212046FFF71AFCF2
:10A57000684618F00BF96A463A4B1C212046FFF753
:10A5800011FC684618F050FB6A46374B27212046DD
:10A59000FFF708FC684619F0D7F86A46334B4321A9
:10A5A0002046FFF7FFFB684619F0D8FC6A46304B9F
:10A5B00058212046FFF7F6FB684619F005FD6A466C
:10A5C0002C4B8E212046FFF7EDFB684619F0D6FD97
:10A5D000294B6A465D212046FFF7E4FB204609B07F
:10A5E00030BD00BFA18F0200E98F0200E9850200A3
:10A5F000ED850200FF890200F1850200F585020069
:10A60000F9850200FD85020001860200F98702003B
:10A61000058602000986020055860200398802007C
:10A620008F8802000D86020011860200B1900200A0
:10A6300015860200198602007D9202001D86020026
:10A64000498A0200838A0200BD8A02002186020034
:10A6500025860200CD860200F78A020011910200D1
:10A6600067910200298602002D860200D191020026
:10A67000678B020045870200318602000279036879
:10A680005143032A03EB010005D8012A94BF585611
:10A69000585EC1177047072A01D85858F9E7D0E922
:10A6A0000001704708B5FFF7E9FF08BD0368C31A4A
:10A6B0001A880A2A07D95B89C21833B1C358D0183F
:10A6C00004D0D058704700207047184670470000EB
:10A6D0000368C31A10B51A88082A17D91B89C41829
:10A6E000A3B1C258A318A258914205D3094B0A4AF4
:10A6F0000A48A92132F06EF8043303EB810053F8C5
:10A700002130BDE810401844FFF7D0BF00231B687C
:10A71000FFDE00BF43530800AE5308004E5308004D
:10A7200070477047032905D8012994BF0078008835
:10A7300000217047072901D80068F9E7D0E9000136
:10A7400070470000F8B50A44054612F8026C12F88A
:10A75000011CB310093B012B13D8023A541A06F01E
:10A760000303204601269E40FFF7DCFFF7B2201AC4
:10A7700028602F713946801BFFF7D4FFA860284658
:10A78000F8BD03482860012129710138F4E700BFB2
:10A79000435308001C21836B18470221836B184721
:10A7A000F0B5224BCF681A688FB00C4606460DF004
:10A7B000CDF91F4B054621461A6830460DF0C8F901
:10A7C0000446287A01280AD009281DD07469FDF7AB
:10A7D00025FE184902463046A047012010E02946D0
:10A7E00002A80DF0C4F9214608A82D680DF0BFF9A4
:10A7F00044B1236808AA294602A800F01BF90020EA
:10A800000FB0F0BD2346F5E7294602A80DF0AFF9D9
:10A81000214608A80DF0ABF92B6804B12468009418
:10A8200008AA02A9384600F087F8E8E7885508002A
:10A830008C550800E85408002DE9F041264BCF68FC
:10A840001A688EB00C4606460DF080F9234B05467B
:10A8500021461A6830460DF07BF90446287A012813
:10A860000AD009281ED07469FDF7D8FD1C4902469C
:10A870003046A047012010E0294602A80DF077F9E4
:10A88000214608A82D680DF072F94CB1236808AA7A
:10A89000294602A800F0EAF800200EB0BDE8F081D9
:10A8A0002346F4E7294602A897F9016097F900705A
:10A8B0000DF05DF9D5F8008008AD214628460DF071
:10A8C00056F904B12468CDE90054434602AA39463A
:10A8D000304600F0F1F8DFE7885508008C55080095
:10A8E000E854080070B5054D064604460FCD0FC468
:10A8F00095E80F0084E80F00304670BDA8540800AA
:10A9000070B5054D064604460FCD0FC495E80F00FF
:10A9100084E80F00304670BDC854080010B50346E7
:10A92000046800220120944204DD53F8041F013220
:10A930004843F8E710BD00002DE9F84F0446394EB2
:10A94000084698466FF00045FFF7E8FF0127002111
:10A95000814264DAE36818F90120D4F810A0D21A11
:10A96000D4E9053E2EEAEE79BEF1000F02FA09F2B3
:10A97000D4BFCEF1000E4FF0000E93422FD103F161
:10A98000004CDCF1000B4BEB0C0B82FB0323002A89
:10A9900073F10009ACBF4FF08049B146BBF1000F25
:10A9A0003AD112EB090B43EBE97C5A466346002A85
:10A9B00073F1000305DA1BEB05039B464CF1000322
:10A9C0009C465B46DA0F42EA4C03BEF11F0F09DDDD
:10A9D000154B164A164840F2671131F0FBFE4FF056
:10A9E000000BD2E707FA0EF2013A02EA030952100D
:10A9F00002EBD37243FA0EF39145C8BF01339A4478
:10AA000063680A9A9A45B8BF9A46A3685345A8BF97
:10AA10005346535401319BE76FF00043D5E7BDE83F
:10AA2000F88F00BF010000C0FE4E080090550800DE
:10AA3000A64E080038B50D461C46FFF76FFF9FED88
:10AA40000A7A23462946002282420CDAF1EC017A86
:10AA5000F5EE407AF1EE10FA48BFF0EE477AE3ECFB
:10AA6000017A0132F0E738BD0000000038B50D462C
:10AA70001C46FFF753FFDFED0F6A234629460022ED
:10AA8000B1EE087A824214DAF1EC017AF4EEC77A78
:10AA9000F1EE10FA0ADCF5EE407AF1EE10FA48BF5A
:10AAA000F0EE667AE3EC017A0132EBE7F1EE087A38
:10AAB000F8E738BD000000002DE9F041079D07468A
:10AAC00010460E469846FFF729FF002282420BDA15
:10AAD00018F90240B44205DCBC42B8BF3C46AC5455
:10AAE0000132F3E73446FAE7BDE8F0812DE9F74398
:10AAF000C468CD68236880469B69002220460E46C4
:10AB00009847074660B92D4B0093D8F814407B2333
:10AB100040462B4A2B49A047012003B0BDE8F083F3
:10AB200023683146DB69002220469847064628B94B
:10AB3000254B0093D8F814407E23E9E73B7F092B8F
:10AB40002FD197ED027AD0ED027AC7EE277A05F180
:10AB5000140805F1180917EE900A31F08BF84B46EE
:10AB60004246FEF701FCD6ED027A9FED187AD6F840
:10AB70000C80C7EE277A17EE900A2FF053F807EEF5
:10AB8000900AFDEEE77A6FF07F0317EE900A4044DB
:10AB90009842ACBF68606B607F23AB60FB68C5E91F
:10ABA0000338236839461B6A2046984723682046A5
:10ABB0001B6A314698470020AFE700BF7455080074
:10ABC00014550800BA4F0800AB5A080000000000F6
:10ABD0002DE9F743C568CF682B6806469B690022BC
:10ABE00028469847044658B9184B00933046746974
:10ABF000174A18499123A047012003B0BDE8F0830C
:10AC0000037F092B1BD1D0ED027AC668B1EE087A1A
:10AC1000C7EE277A17EE900A31F02CF82EF074FE6A
:10AC200080468946304631F013F842464B4630F0B4
:10AC3000C3FE31F027FB00F3070038707E702B68ED
:10AC400028461B6A214698470020D6E7745508001D
:10AC500014550800BA4F08002DE9F04F0B688DB06D
:10AC600005468A4623B1D3F800B0BBF1010F08DCDA
:10AC7000934B6C6900933223924A93492846A0472C
:10AC80007AE04B6813B11C68012C0FD06E6903B1D8
:10AC90001B688C4A8D490124CDE902348C4B019309
:10ACA0008C4B009333232846B0470FE0C6683368C7
:10ACB00000229B6930469847804658B9864B6E699A
:10ACC000009338237F4A80492846B04720460DB07C
:10ACD000BDE8F08F33680022DB6951463046984763
:10ACE000814620B97D4B00936E693B23EAE7007FE4
:10ACF00098F81C30834211D06E69FDF78FFB074630
:10AD000098F81C00FDF78AFB754B0193754B009377
:10AD1000CDE902703E236B4A7349C4E7336822468B
:10AD20009B69514630469847074620B96F4B0093C0
:10AD30006C694123A0E701464046FEF7CDFF20B9EC
:10AD40006B4B00936C69422396E798F81C003B7F9D
:10AD5000834213D06C69FDF761FB0646387FFDF72F
:10AD60005DFB644B01935E4B0093CDE9026043238E
:10AD7000544A5D492846A0470124A7E7092B17D16B
:10AD8000D8F80C20FB689A4204D05B4B00936C69A6
:10AD9000482371E798ED027AD7ED027AB4EE677A2C
:10ADA000F1EE10FA04D0554B00936C694A2363E727
:10ADB000336839461B6A304601349847A345ADD104
:10ADC00099F81C00012818D12B6C0BAA4FEA8B01B3
:10ADD00028469847044600287FF478AF0B9BCAF8B2
:10ADE0000C30336841461B6A304698473368494601
:10ADF0001B6A30469847002468E7092858D1AB6B96
:10AE00002821284698472B6CCAF80C0000F1240230
:10AE100007464FEA8B0128469847044600287FF4EE
:10AE200055AFD8F80C30D8F808005B42BB60D9F8B1
:10AE30000C30FB6014233B6230F01CFF02460B46D3
:10AE4000CDE9040130F0B8FDCDE90601D9F80800DC
:10AE500030F010FF00222A4B30F064FF02460B4610
:10AE6000DDE9060131F088F807F1180BDDE906236A
:10AE7000CDE9080107F1100ADDE9040131F07CF8A1
:10AE80005B465246FEF7C0FADDE9080107F11C03F4
:10AE900007F11402FEF7B8FA3B1D009321463B462A
:10AEA0004A462846FEF782FD0446002899D00DE761
:10AEB0006C69FDF7B3FA134902462846A0475BE7E1
:10AEC0005F5608000C560800BA4F080038500800BA
:10AED0005B7B08006F56080080560800AB5A0800DC
:10AEE000B8560800E4B008009E56080074550800E3
:10AEF000D1560800FCB00800FB5608003D5708007A
:10AF00000000304175570800884238B529D100F15A
:10AF100000435C425C4180FB0101002871F10003A9
:10AF20001D4BA8BF4FF08043ECB9C41841EBE3754B
:10AF3000002C75F1000306DA6FF00043E4184FF0BF
:10AF4000000343EB0505E00F40EA4501002AC2F18A
:10AF500000040BDD114B124A4FF4B371114831F06C
:10AF600039FC0024D7E76FF00041EFE71F3204DA25
:10AF70000D4B0B4A40F26711F0E70123A340013B60
:10AF800003EA01005B1003EBD17321419842D4BF67
:10AF90000846481C38BD00BF010000C0984E08009C
:10AFA000A3570800A64E0800FE4E08002DE9F04FFA
:10AFB000002291B0804689460CF0CAFD0546007A11
:10AFC000012838D1D9F8004004B12468D8F84430B9
:10AFD000D9F80C104046984700260746B44209DDD0
:10AFE0003246494640460CF0B1FD036847F826302A
:10AFF0000136F3E729460AA80CF0B9FD0AA8FFF7C5
:10B000008DFC2A6807EB840402EB8000134698420B
:10B0100000F08280DFED477A9E1A3D46A54207D0B8
:10B0200055F8041B314491ED007A77EE877AF5E705
:10B03000E3EC017AEBE7092872D1D9F8004004B1BA
:10B040002468D9F80CB0D8F84430DBF82410404616
:10B05000984700270646BC4209DD3A464946404625
:10B060000CF074FD036846F827300137F3E7DBF88E
:10B070000C300093DBF814300193DBF81C300293A2
:10B08000DBF8003003932946DBF80430DBF820704E
:10B09000DBF80880DBF81090DBF818A004930AA80E
:10B0A0000CF065FD2B6805930AA8FFF737FC08FA3A
:10B0B00007F3069306EB8403834607930024A34516
:10B0C0002AD0524649460698FFF71EFF33460546EA
:10B0D000079A9A420DD053F8042B10574044524619
:10B0E0004946B840CDE90833FFF70EFF089B0544F9
:10B0F000EEE7DDE901122846FFF706FF009B184442
:10B10000039B9842B8BF1846049B9842A8BF1846B4
:10B11000059B18550134D2E7002011B0BDE8F08F2F
:10B12000D8F81440FDF77AF9034902464046A04793
:10B130000120F2E7000000007557080070B5054DCA
:10B14000064604460FCD0FC495E80F0084E80F00B3
:10B15000304670BDEC5508002DE9F04F144693B011
:10B1600000220E4605460CF0F1FC3146012207464E
:10B1700028460CF0EBFC31468046002228460CF0B5
:10B18000E7FC064698F80800022840F0A281307AD1
:10B19000022840F09E81387A01280BD0092800F05F
:10B1A000D4806C69FDF73AF9C24902462846A047A7
:10B1B00001208BE1394606A80CF0D9FCD8F80050E4
:10B1C0003B6801930CA831460CF0D1FC336806981B
:10B1D0002A68002C5CD0002AB8BF121812A901EB13
:10B1E00082014FF0010C51F82C5C00218A4201F1E0
:10B1F000010406DD06A951F8241001FB0CFC2146D0
:10B20000F4E7511C0122884201F101042CDC05FB0A
:10B2100002F18900019E02934FEA820A0391012400
:10B220000027BC4540F351810198DDF8089002FBEE
:10B2300004F100EB8101B3464FF0000E72451FDDB3
:10B24000FBEC017A884601200023854212DD98ED4F
:10B25000007AB4EEE77AF1EE10FAC4BF0346F0EEDE
:10B26000477A0130D044F0E706A951F824104A4348
:10B270002146C8E749F8043B0EF1010E0431DDE731
:10B28000029B53440293039B01371E442C44C8E79E
:10B29000002AB8BF121812A901EB82014FF0010C6D
:10B2A00051F82C5C00218A4201F1010406DD06A957
:10B2B00051F8241001FB0CFC2146F4E7511C01223B
:10B2C000884201F101042CDC05FB02F18900019E9A
:10B2D00002934FEA820A039101240027BC4540F300
:10B2E000F4800198DDF8089002FB04F100EB810185
:10B2F000B3464FF0000E72451FDDFBEC017A884625
:10B3000001200023854212DD98ED007AB4EEE77A41
:10B31000F1EE10FA44BF0346F0EE477A0130D04414
:10B32000F0E706A951F824104A432146C8E749F836
:10B33000043B0EF1010E0431DDE7029B53440293FE
:10B34000039B01371E442C44C8E7394606A80CF07D
:10B350000EFCD8F800503B6801930CA831460CF065
:10B3600006FC336806982A68002C56D0002AB8BF1D
:10B37000121812A901EB82014FF0010C51F82C5C5C
:10B3800000218A4201F1010406DD06A951F82410CA
:10B3900001FB0CFC2146F4E7511C0122884201F11B
:10B3A000010427DC91000491019E029305FB02F148
:10B3B000059101240027BC4540F387800199DDF801
:10B3C000088004FB02110391B14600218A421BDD73
:10B3D000039819F901AB01EB000E0023012085420F
:10B3E0000EDD9EF900B0D345C4BF0346DA460130F6
:10B3F0009644F4E706A951F824104A432146CDE7C4
:10B4000048F8043B0131E1E7049B02991944059B8C
:10B41000029101371E442C44CDE7002AB8BF121810
:10B4200012A901EB82014FF0010C51F82C5C0021B4
:10B430008A4201F1010406DD06A951F8241001FB3E
:10B440000CFC2146F4E7511C0122884201F1010461
:10B4500026DC91000491019E029305FB02F1059107
:10B4600001240027BC4530DD0199DDF8088004FB8C
:10B4700002110391B14600218A421DDD039819F99A
:10B4800001AB01EB000E0023012085420EDD9EF989
:10B4900000B0D345BCBF0346DA4601309644F4E71A
:10B4A00006A951F824104A432146CEE748F8043B48
:10B4B0000131E1E7FD570800049B02991944059BFF
:10B4C000029101371E442C44CCE7002013B0BDE8A4
:10B4D000F08F6C69FCF7A2FF0149024666E600BFE7
:10B4E0003F5808000022FFF737BE0122FFF734BEA5
:10B4F00008B52022002131F029FE014AC26008BDB2
:10B50000EBB4020008B52022002131F01FFE014AF1
:10B51000C26008BDE5B4020070B5002204460E46C4
:10B520000CF014FB01220546314620460CF00EFBC0
:10B53000E3689B680246986928B12968BDE87040B5
:10B5400009681AF05BBD02481AF03EF8012070BD90
:10B55000905808002DE9F0430B6887B004460E466A
:10B5600013B11A68022A13D0656903B11B683B49FD
:10B570000222CDE902323A4B01933A4B00933A4A08
:10B5800027232046A8470124204607B0BDE8F083C2
:10B590004B6800226BB11B685BB1CDE90232334BC3
:10B5A0000193334B009344692F4A2C492823A04729
:10B5B000E9E7314620460CF0C9FA037A0E2B07461C
:10B5C0000AD0022B08D02B4B00936569264A2A49E2
:10B5D00034232046A847D6E7796851F804EB0020C9
:10B5E0000122002386450CDD51F804CB4FEAEC79AB
:10B5F00002FB09F50CFB0355A2FB0C232B44013085
:10B60000F0E7002B08BF012A0ED0CDE902231B4B27
:10B61000019301251A4B009304956669124A0F495C
:10B6200035232046B047AEE7E5682B6831469B6975
:10B6300001222846984739680646A8680968806943
:10B64000224633461AF0B4FC044600289CD12B68ED
:10B6500031461B6A2846984796E700BF38500800D5
:10B66000F28E08005A590800FD5808005CD80800FE
:10B670006F5608006A590800BA4F08005B7B080043
:10B68000D059080070B5054D064604460FCD0FC4CD
:10B6900095E80F0084E80F00304670BD7058080030
:10B6A0002DE9FF410B6805460F4613B11A68032ABE
:10B6B0000FD06C6903B11B6843490322CDE9023204
:10B6C000424B0193424A434B009329232846A0470B
:10B6D00031E04B6813B11C68012C12D06E6903B1C4
:10B6E0001B683B4A38490124CDE902343A4B0193A7
:10B6F0003A4B009328462A23B047204604B0BDE8C1
:10B70000F081C668336800229B69304698473368E9
:10B7100039468046DB690022304698470746B8F133
:10B72000000F00D048B92E4B6C6900933223284A91
:10B730002C492846A0470124DFE7D8F814301A68BE
:10B74000022A08DC284B6E6900933423204A2549DD
:10B750002846B047D1E743691B68022B04DC234B22
:10B7600000936E693523F1E7042A04DD204B009332
:10B770006E693623EAE7042B04DD1E4B00936C69E7
:10B780003723D4E798F81C003B7F834210D06C69C4
:10B79000FCF744FE0646387FFCF740FE164B01934B
:10B7A000164B0093CDE902603823094A14498DE70E
:10B7B000336841461B6A30469847336839461B6AEE
:10B7C00030469847002498E738500800508E08000B
:10B7D000385A08005A5908005B7B08006F56080069
:10B7E000975A0800BA4F0800BD5A0800F15A0800DD
:10B7F000265B08005A5B0800E4B00800FCB00800B3
:10B800009E5608000B68042B70B5064609D10C46FD
:10B8100005460FCC0FC594E8030085E803003046C9
:10B8200070BDD1E90102CB68B26004210122C6E9F2
:10B830000010C6E90323F2E770B5054D064604463D
:10B840000FCD0FC495E80F0084E80F00304670BD9F
:10B85000FC5908002DE9F04F9DB005460E46014603
:10B8600010A81F46279CFFF7CDFF289916A8FFF7C1
:10B87000C9FF199B0493189B0593179B0693DDE959
:10B8800013230092129A0792119A0B923A68099226
:10B890002A6821680A91042A08BF7D6807990196E1
:10B8A00018BF0125042A0CBFA268002203929A0047
:10B8B0000292009A4A435A4392000E92009A5343CE
:10B8C0009B000D9300240B9B9C424DDA069B059A2E
:10B8D00094FBF3F703FB174353430026DDF8049072
:10B8E0000893B246079B9A4538DA97FBF5F30A9A14
:10B8F00033449B1A2BD4059A9A4228DD089A1344A4
:10B90000049A4FF0000853430C93CB464346009AE9
:10B9100093421CDA97FBF5F0039A05FB1070404444
:10B92000801A0FD4049A82420CDD0F930C9B1A9A52
:10B930001844299B504303EB8000029A594631F08A
:10B94000DDFB0F9B029A01339344A844DFE7099B78
:10B950001E440D9B0AF1010A9944C3E7019B0E9A0C
:10B96000134401340193AEE71DB0BDE8F08F2DE91B
:10B97000F04F9DB005460F46014610A89846279CFB
:10B98000FFF740FF289916A8FFF73CFF199B049387
:10B99000189B0593179B0693DDE913360093129BC2
:10B9A0000793119B0B93D8F8003009932B682268FA
:10B9B0000A92042B08BFD8F80450079A029718BFC0
:10B9C0000125042B0CBFA36800230393009B534362
:10B9D00073430E93009B73430D9300240B9B9C4277
:10B9E0004FDA069B059A94FBF3F803FB1843534385
:10B9F00008930027029B0193BA46079B9A453ADABF
:10BA000098FBF5F30A9A3B449B1A2BD4059A9A4269
:10BA100028DD089ADDF804B01344049A4FF00009B9
:10BA200053430C934B46009A93421BDA98FBF5F074
:10BA3000039A05FB10804844801A0FD4049A82426E
:10BA40000CDD0F930C9B18441A9B9C46299B324695
:10BA50000CFB0030594631F051FB0F9B0133B344CE
:10BA6000A944E0E7099B0D9A1F44019B13440AF186
:10BA7000010A0193C1E7029B0E9A13440134029319
:10BA8000ACE71DB0BDE8F08F2DE9F04300229DB07A
:10BA90000C4606460CF05AF821460546012230466F
:10BAA0000CF054F821460222804630460CF04EF845
:10BAB00021460746002230460CF04AF80446287A10
:10BAC00001280BD0092830D07469FCF7A7FC2B7A29
:10BAD000284902463046A047012023E0294604A811
:10BAE0000CF045F84146D5F800900AA810AD0CF0CE
:10BAF0003EF816AE39462846D8F800800CF037F8E4
:10BB0000214630463F680CF032F804B12468CDE994
:10BB10000264CDE9005743460AAA494604A8FFF744
:10BB200099FE00201DB0BDE8F083294604A80CF062
:10BB30001EF84146D5F800900AA810AD0CF017F891
:10BB400016AE39462846D8F800800CF010F8214689
:10BB500030463F680CF00BF804B12468CDE902646C
:10BB6000CDE9005743460AAA494604A8FFF7FFFE5D
:10BB7000D7E700BF1C5A08000821836B1847000054
:10BB800037B5D1E9033215681D6000221A710B68C0
:10BB900004465BB11B684BB1124B00934469124AD7
:10BBA00012493323A047012003B030BD4B6853B185
:10BBB0001B6843B10E4B0093656934230A4A0B4955
:10BBC0002046A847EFE7E36898680368DB6A984770
:10BBD000854204DB074B009365693A23EEE70020BA
:10BBE000E2E700BF075C0800B05B0800BA4F08003E
:10BBF0001C5C0800325C080010B5CC6823794BB996
:10BC0000C3682168986803685B69984708B901238D
:10BC1000237110BD0020FCE770B5054D06460446B3
:10BC20000FCD0FC495E80F0084E80F00304670BDBB
:10BC3000905B08002DE9FF410B6805460F4613B1E4
:10BC40001A68012A12D06E6903B11B680124CDE97C
:10BC50000234244B0193244B00931D23234A24498F
:10BC60002846B047204604B0BDE8F0814B6813B1C8
:10BC70001C68012C0BD06E6903B11B680124CDE94F
:10BC80000234184B01931B4B00931E23E6E7C66852
:10BC9000336800229B6930469847804640B9164B6E
:10BCA0006E6900932423114A14492846B047D9E706
:10BCB00033683946DB69002230469847074620B989
:10BCC0000F4B00936E692723EDE7336841461B6AEB
:10BCD00030469847336839461B6A304698470024F7
:10BCE000C0E700BF5B7B08005A590800D15C080020
:10BCF000385008006F56080074550800BA4F080005
:10BD0000AB5A080070B500228CB004460E460BF00A
:10BD10001DFF00223146054620460BF019FF29463B
:10BD2000044668460BF023FF214606A80BF01FFFD0
:10BD3000009E6A46002101238E4202F1040203DDC7
:10BD4000106801314343F7E7287A421E0F2A00F2B8
:10BD50005D81DFE812F00D0193005B015B015B0187
:10BD60005B014D005B0110005B015B015B015B014E
:10BD70005B015B01D200207A2A68411E082900F28B
:10BD80003B81DFE811F027001D003901390139013D
:10BD9000390113003901090021681344934200F06E
:10BDA000328112F9010B01F8010BF7E72168134406
:10BDB0009A4200F0288112F9010B21F8020BF7E7F3
:10BDC000216813449A4200F01E8112F9010B41F8D8
:10BDD000040BF7E721681344934200F0148112F931
:10BDE000010B07EE900AF8EEE77AE1EC017AF3E74F
:10BDF000207A2A68411E082900F2FE80DFE811F04F
:10BE00002D002000FC00FC00FC00FC001500FC00E4
:10BE10000900216802EB43039342104600F0F380CF
:10BE2000008801F8010B0232F6E7216802EB4303B8
:10BE3000934200F0E88032F9020B21F8020BF7E799
:10BE4000216802EB43039342104600F0DC80B0F916
:10BE5000000041F8040B0232F5E7216802EB4303CE
:10BE60009342104600F0CF80B0F9000007EE900A30
:10BE7000F8EEE77A0232E1EC017AF1E7207A2A68FB
:10BE8000411E082900F2B880DFE801F0281DB6B68F
:10BE9000B6B611B60500216802EB83039A4210463C
:10BEA00000F0B180006801F8010B0432F6E7216868
:10BEB00002EB83039A42104600F0A580006821F847
:10BEC000020B0432F6E7216802EB8303934200F091
:10BED0009A8052F8040B41F8040BF7E7216802EB53
:10BEE00083039342104600F08E80D0ED007AF8EE86
:10BEF000E77A0432E1EC017AF3E7207A2A68411EFE
:10BF0000082979D8DFE801F0261B7878787810784E
:10BF10000500216802EB83039342104673D000684A
:10BF200001F8010B0432F7E7216802EB8303934227
:10BF3000104668D0006821F8020B0432F7E7216848
:10BF400002EB83039A4210465DD0006841F8040B6F
:10BF50000432F7E7216802EB83039A42104652D07D
:10BF6000D0ED007AF8EE677A0432E1EC017AF4E77A
:10BF7000207A2A68411E08293ED8DFE801F03325DF
:10BF80003D3D3D3D153D0500206802EB83039A428F
:10BF9000114638D0D1ED007AFDEEE77A043217EE83
:10BFA000901A00F8011BF2E7216802EB8303934229
:10BFB000104628D0D0ED007AFDEEE77A043217EE75
:10BFC000900A21F8020BF2E7216802EB8303934207
:10BFD000104618D0D0ED007AFDEEE77A0432E1EC9D
:10BFE000017AF4E7216802EB830393420BD052F805
:10BFF000040B41F8040BF8E7FCF710FA227A01462B
:10C00000054819F0E1FA00200CB070BDFCF706FA03
:10C010002A7A01460148F4E78C5C0800AF5C08000E
:10C0200070B5054D064604460FCD0FC495E80F00C8
:10C0300084E80F00304670BD6C5C08002DE9F043C9
:10C04000C668336885B005469B69002230460C46B9
:10C050009847074660B9584B6C6900932423574AA8
:10C0600057492846A0470124204605B0BDE8F08383
:10C0700033680022DB69214630469847804620B964
:10C08000504B00936C692723E9E7236813B11A68C2
:10C09000012A0DD06E6903B11B680124CDE9023479
:10C0A000494B0193494B00932823444A484926E0D1
:10C0B000636813B11C68012C0BD06E6903B11B6857
:10C0C0000124CDE90234404B0193424B00932923D4
:10C0D000EBE797F81C90B9F1010F13D048466E6951
:10C0E000FCF79CF907462046FCF798F93A4B019378
:10C0F000CDE90270394B314A394900932A23284649
:10C10000B047B1E7047F012C13D020466E69FCF7DD
:10C1100085F90446387FFCF781F9304B0193314BA8
:10C120000093CDE902402B23244A2D492846B047ED
:10C1300099E78369BA69934208D0CDE902322A4B64
:10C1400001932A4B00936E692C23AEE7D0F814C0FC
:10C150007A69DCF80010136899420CD0CDE902131B
:10C16000234B01936C69234B00932D23134A1849E9
:10C170002846A04777E70123043A581E81420FDD85
:10C180005CF82300013352F82340A042F5D01A4B4B
:10C1900001931A4B0093CDE902042F236C69E5E764
:10C1A000336839461B6A30469847336841461B6AF4
:10C1B00030469847002457E774550800445D08004E
:10C1C000BA4F0800AB5A08005B7B08005A590800B8
:10C1D000385008006F5608004A710800FCB008008B
:10C1E0009E560800E4B00800965D0800A35D0800B4
:10C1F000B1A70800B15D0800C45D0800D95D080062
:10C20000F0B500228DB004460E460BF09FFC0022D4
:10C210000546314620460BF09BFC294604466846FD
:10C220000BF0A5FC214606A82D680BF0A0FC04B17C
:10C23000246800986B4600220127904203F1040312
:10C240000ADC0026BE420BDA55F8040B2DF0A4FBE5
:10C25000013644F8040BF5E7196801324F43ECE767
:10C2600000200DB0F0BD000070B5054D0646044637
:10C270000FCD0FC495E80F0084E80F00304670BD65
:10C28000245D08007FB50D46836B0821164698474C
:10C29000044675B16EB13246294601A8FEF752FA3E
:10C2A000054B01A81968FEF7FDF96060204604B04F
:10C2B00070BD00236360F9E7F45E0800013970B5D2
:10C2C000154602FB01F4064622465919184630F07D
:10C2D00023FF2A4631462044BDE8704030F00EBFAF
:10C2E000174B70B51A6804460E460BF02FFC154B21
:10C2F00005461A68314620460BF02AFC2B7A092B9A
:10C3000010D14168F46803682868D1E90326896878
:10C310007243FFF7D3FF20680138206068B10A4BF1
:10C32000187809E018466669FCF778F82B7A07490F
:10C3300002462046B047012070BD63682360FBE7DA
:10C34000EC5E0800F05E0800EF5D08001C5A080073
:10C3500000487047246000202DE9FF47C668336815
:10C3600000229B69054630468946984733688046D7
:10C37000DB6900224946304698470746B8F1000F6E
:10C380000CD1574B6C6900933623564A56492846C0
:10C39000A0470124204604B0BDE8F08720B9534BE4
:10C3A00000936C693723F0E7D8F81430D0F814A064
:10C3B0005A68DAF804108A420CD04D4B01934D4B69
:10C3C0000093CDE902216C69464A4B49382328463F
:10C3D000A047DEE79C68012C0DD0484B03940193E5
:10C3E0000124474B6E690093029439233D4A424928
:10C3F0002846B047CEE7DA68DAF80CE0724508D094
:10C40000404B0193404B0093CDE9022E6E693A23D5
:10C41000ECE7DAF810C01B699C4508D0CDE902C3EF
:10C420003A4B01933A4B00936E693B23DEE798F851
:10C430001C003B7F834210D06E69FBF7EFFF804604
:10C44000387FFBF7EBFF334B0193CDE90280324B92
:10C4500000933D23234A3149CAE7092B0FD01846E0
:10C460006E69FBF7DBFF07460920FBF7D7FF2C4B74
:10C470000193294B0093CDE902704023EAE7D9F8F4
:10C480000C305A68002A17DC264ADAF808001168CE
:10C4900020F008040131052C116009D0192807D0BB
:10C4A000052919D1BEF1020F16D1BCF1600F13D1CD
:10C4B00001215960002111605A681A60C9F80C30D6
:10C4C000336841461B6A30469847336839461B6AD1
:10C4D0003046984700245DE702225A60ECE700BF2F
:10C4E00074550800F05D0800BA4F0800AB5A080008
:10C4F000545E08006A5E0800385008007F5E08003D
:10C500005B7B0800945E0800AA5E0800BF5E08001E
:10C51000D45E0800E4B00800FCB008009E56080095
:10C52000616708007C9F00203C21836B1847000056
:10C530002DE9F04FC5682DED028B2B688BB00646B8
:10C540009B690022284688469847834668B96E4B07
:10C5500074690093DF2330466C4A6D49A04701207F
:10C560000BB0BDEC028BBDE8F08F2B6801229B69FC
:10C57000414628469847824620B9664B0093746925
:10C58000E223E8E72B680022DB694146284698470A
:10C59000074620B9604B00937469E523DBE7D8E9CF
:10C5A0000343514658460593FDF796FB3B7F80F0C9
:10C5B0000100092B207002D0072B40F08980DBF8A6
:10C5C0000C209BED028ADAED028A5242A262DAF86E
:10C5D0000C20B4EEE88A072BC2F100020CBF4FF02A
:10C5E0000F084FF01408E262F1EE10FAFA682263C5
:10C5F00054BF18EE100A18EE900AC4F824802FF0E9
:10C6000039FB02460B462FF0D7F9CDE9020118EEAF
:10C61000900A2FF02FFBDDE902232FF0ADFCCDE9CE
:10C620000601012000FA08F02FF012FB8046B868DE
:10C6300089462FF01FFB02460B46404649462FF025
:10C6400071FB02460B46DDE902012FF095FCCDE9B6
:10C65000080118EE100A2FF00DFB04F10409DDE9C2
:10C66000022304F114082FF087FC4B464246FCF7E6
:10C67000CBFE04F1080304F11802DDE90601FCF722
:10C68000C3FEDDE9080104F1200304F11C02FCF7FC
:10C69000BBFE059B197804F1100300933A4604F1A0
:10C6A0000C033046FDF782F900287FF459AF2B6860
:10C6B00059461B6A284698472B6851461B6A2846EC
:10C6C00098472B6828461B6A39469847002047E759
:10C6D000012BECD1059B1B78012B03D10023636355
:10C6E0000E4B04E0032B04D1002363630C4BA363C4
:10C6F000DDE7022B04D10B4B63634FF07E53F6E76B
:10C700006FF40003EBE700BF725F0800185F0800DA
:10C71000BA4F0800845F0800AB5A0800FFFF7F7F14
:10C720000000C040000080BF70B501600446106882
:10C73000884201DD30F046F8251D091A2E460020FA
:10C74000884203D045F8043B0130F9E7114606EB77
:10C75000800051F8042B920030F0D0FC204670BDD0
:10C7600070B50D461646FEF7D9F804462846FEF782
:10C77000D5F805463046FEF7D1F8AC4201D030F08E
:10C7800021F88442FBD170BD30B5D0E904456A433D
:10C7900004FB01218469039AC06904FB031300FBB5
:10C7A000023030BDF0B50E460168336899428DB055
:10C7B000B8BF1946042313700D46012314460246E0
:10C7C0006846FFF7B1FF01233246294606A8FFF766
:10C7D000ABFF009A069B9A420AD1920007A901A8D2
:10C7E00030F07EFC20B90123237000200DB0F0BD95
:10C7F0006B1E2A46511E0CD45DF822000A4606A97B
:10C8000001EB820149688842F4D001282DD102222F
:10C8100022702278911E0129E5D80120032AC4E95B
:10C820001400C4E916004FEA850119BF6E4606AA36
:10C8300006AE6A46751820661144002B1BDB55F8BE
:10C84000040951F80479B84217D0311D043251F867
:10C85000235052F82300012D14D1E56D13F1FF335D
:10C8600000FB05F0E065F2D205E0012901D10322C9
:10C87000CEE7042323700120B8E7276E78432066B3
:10C88000013BDAE751F8230052F82350A84207D1C0
:10C89000A56D13F1FF3300FB05F0A065F2D2EAE7C6
:10C8A00052F8235051F82300012D07D1656D13F183
:10C8B000FF3300FB05F06065F2D2DCE752F823009D
:10C8C00051F82350A842D4D1256D13F1FF3300FB5A
:10C8D00005F02065F2D2CEE770B5054D0646044658
:10C8E0000FCD0FC495E80F0084E80F00304670BDEF
:10C8F000F85E0800F0B58DB00E46144604210246DD
:10C900001D4668460123FFF70FFF3246042101232D
:10C9100006A8FFF709FF04AE04F10C02012113463B
:10C9200056F8040943F80409A242596100FB01F1D9
:10C930002CD10AAE05F10C020121134656F8040968
:10C9400043F80409AA42596100FB01F120D10023F8
:10C95000694606AA1E4605F1100C04F1100E48683F
:10C960005768B84209D001280BBF4EF823604CF835
:10C97000236044F8237045F823000133042B01F1B0
:10C98000040102F10402EAD10DB0F0BD1A46C6E777
:10C990001A46D2E72DE9F04F2DED028BA5B01CAD64
:10C9A00014AE04460B920846324619462B46FFF752
:10C9B000A1FF0123319A04210EA8FFF7B5FE0F9BBA
:10C9C0000793109B0593059A119BDDF848900393FC
:10C9D000534309FB03F39B000A93039B329FD4ED5F
:10C9E0000D8A94ED0E8A09FB03F39B00CDE90C65DB
:10C9F00009934FEA890308930024079B9C4250DA6D
:10CA000004970025059B9D4247DADDF810A000261B
:10CA1000039B9E423BDACDF818A04FF00008C845B2
:10CA200031DACDF8008033462A4621460C98FFF7CC
:10CA3000ABFECDF80080834633462A4621460D984A
:10CA4000FFF7A2FE0B9B03EB8B0B309BDBED007A19
:10CA500003EB800090ED007A069B77EE877A08F171
:10CA60000108F4EE687AF1EE10FA48BFF0EE687A49
:10CA7000B4EE678AF1EE10FA48BFF0EE487AE3ECC4
:10CA8000017A0693CBE7089B01369A44C0E7049BE2
:10CA9000099A134401350493B4E70A9B01341F44F7
:10CAA000ABE725B0BDEC028BBDE8F08F2DE9F04F70
:10CAB000A5B014AE0B9204463246084619461CAB8C
:10CAC000FFF718FF01232F9A04210EA8FFF72CFE71
:10CAD0000F9B0793109B0593059A119BDDF84890D7
